{
  "contractName": "Election",
  "abi": [
    {
      "constant": true,
      "inputs": [
        {
          "name": "",
          "type": "uint256"
        }
      ],
      "name": "candidates",
      "outputs": [
        {
          "name": "id",
          "type": "uint256"
        },
        {
          "name": "name",
          "type": "string"
        },
        {
          "name": "voteCount",
          "type": "uint256"
        }
      ],
      "payable": false,
      "stateMutability": "view",
      "type": "function"
    },
    {
      "constant": true,
      "inputs": [],
      "name": "candidateCount",
      "outputs": [
        {
          "name": "",
          "type": "uint256"
        }
      ],
      "payable": false,
      "stateMutability": "view",
      "type": "function"
    },
    {
      "inputs": [],
      "payable": false,
      "stateMutability": "nonpayable",
      "type": "constructor"
    }
  ],
  "bytecode": "0x6060604052341561000f57600080fd5b6100606040805190810160405280600581526020017f5472756d700000000000000000000000000000000000000000000000000000008152506100b664010000000002610170176401000000009004565b6100b16040805190810160405280600781526020017f436c696e746f6e000000000000000000000000000000000000000000000000008152506100b664010000000002610170176401000000009004565b6101d7565b600160008154809291906001019190505550606060405190810160405280600154815260200182815260200160008152506000806001548152602001908152602001600020600082015181600001556020820151816001019080519060200190610121929190610132565b506040820151816002015590505050565b828054600181600116156101000203166002900490600052602060002090601f016020900481019282601f1061017357805160ff19168380011785556101a1565b828001600101855582156101a1579182015b828111156101a0578251825591602001919060010190610185565b5b5090506101ae91906101b2565b5090565b6101d491905b808211156101d05760008160009055506001016101b8565b5090565b90565b6102bd806101e66000396000f30060606040526004361061004c576000357c0100000000000000000000000000000000000000000000000000000000900463ffffffff1680633477ee2e14610051578063a9a981a314610118575b600080fd5b341561005c57600080fd5b6100726004808035906020019091905050610141565b60405180848152602001806020018381526020018281038252848181546001816001161561010002031660029004815260200191508054600181600116156101000203166002900480156101075780601f106100dc57610100808354040283529160200191610107565b820191906000526020600020905b8154815290600101906020018083116100ea57829003601f168201915b505094505050505060405180910390f35b341561012357600080fd5b61012b61016a565b6040518082815260200191505060405180910390f35b600060205280600052604060002060009150905080600001549080600101908060020154905083565b60015481565b6001600081548092919060010191905055506060604051908101604052806001548152602001828152602001600081525060008060015481526020019081526020016000206000820151816000015560208201518160010190805190602001906101db9291906101ec565b506040820151816002015590505050565b828054600181600116156101000203166002900490600052602060002090601f016020900481019282601f1061022d57805160ff191683800117855561025b565b8280016001018555821561025b579182015b8281111561025a57825182559160200191906001019061023f565b5b509050610268919061026c565b5090565b61028e91905b8082111561028a576000816000905550600101610272565b5090565b905600a165627a7a72305820d3638ba54189efc940e23f0e2beefdfacc386483ff79bf787bfd2b71b1cf3f8c0029",
  "source": "pragma solidity ^0.4.2;\n\ncontract Election {\n  // Model a candidate\n  struct Candidate {\n    uint id;\n    string name;\n    uint voteCount;\n  }\n\n  // Store candidates\n  // Fetch candidate\n  mapping(uint => Candidate) public candidates;\n  // Store Candidates Counts\n  uint public candidateCount;\n\n  // constructor, note: constructor is a function that dosent have name, instead it refrences the contract name (ie Election)\n  function Election () public {\n    addCandidate('Trump');\n    addCandidate('Clinton');\n  }\n\n  // add candidates\n  function addCandidate (string _name) private {\n    candidateCount ++;\n    candidates[candidateCount] = Candidate(candidateCount, _name, 0);\n  }\n}\n",
  "sourcePath": "/Users/mandil/Desktop/codes/ethereum/election-DApp/contracts/Election.sol",
  "compiler": {
    "name": "solc",
    "version": "0.4.19+commit.c4cbbb05.Emscripten.clang"
  },
  "schemaVersion": "2.0.0",
  "updatedAt": "2018-03-23T00:20:38.655Z"
}